:100000000C9434000C9463010C948C010C945100FA
:100010000C9451000C9451000C9451000C9451001C
:100020000C9451000C9451000C9451000C9451000C
:100030000C9451000C9451000C94C4010C94510088
:100040000C9451000C9451000C9451000C945100EC
:100050000C9451000C9451000C9451000C945100DC
:100060000C9451000C94510011241FBECFEFD8E026
:10007000DEBFCDBF11E0A0E0B1E0EEE1FAE002C0EA
:1000800005900D92A831B107D9F721E0A8E1B1E0C0
:1000900001C01D92A032B207E1F70E9492040C94B5
:1000A0000D050C94000081309105C9F018F00297FD
:1000B00059F1089581E090E0A0E0B0E004C0880F1D
:1000C000991FAA1FBB1F6A95D2F724B14130510571
:1000D00019F4822B84B9089580958223FBCF81E0A7
:1000E00090E0A0E0B0E004C0880F991FAA1FBB1FDA
:1000F0006A95D2F727B14130510519F4822B87B99F
:10010000089580958223FBCF81E090E0A0E0B0E0ED
:1001100004C0880F991FAA1FBB1F6A95D2F72AB186
:100120004130510519F4822B8AB9089580958223B4
:10013000FBCF81309105C1F018F0029749F1089585
:1001400081E090E0A0E0B0E004C0880F991FAA1FF2
:10015000BB1F6A95D2F725B1452B19F0822B85B9C3
:10016000089580958223FBCF81E090E0A0E0B0E08D
:1001700004C0880F991FAA1FBB1F6A95D2F728B128
:10018000452B19F0822B88B9089580958223FBCFE7
:1001900081E090E0A0E0B0E004C0880F991FAA1FA2
:1001A000BB1F6A95D2F72BB1452B19F0822B8BB967
:1001B000089580958223FBCF81309105A1F028F02E
:1001C000029799F090E080E0089583B190E0B0E06C
:1001D000A0E004C0B695A795979587956A95D2F744
:1001E000817090E0089586B1F1CF89B1EFCF813071
:1001F000910599F018F00297F9F0089535B181E072
:1002000090E0A0E0B0E004C0880F991FAA1FBB1FB8
:100210006A95D2F7832785B9089538B181E090E0D7
:10022000A0E0B0E004C0880F991FAA1FBB1F6A9509
:10023000D2F7832788B908953BB181E090E0A0E030
:10024000B0E004C0880F991FAA1FBB1F6A95D2F7A0
:1002500083278BB90895F894811111C080916900AA
:100260008C7F8093690080916900682B609369009E
:1002700050931B0140931A01E89A789408958130B5
:10028000E1F780916900837F809369008091690024
:10029000660F660F682B60936900509319014093B5
:1002A0001801E99AEACF811102C0E89A08958130D5
:1002B00009F4E99A0895811102C0E89808958130FF
:1002C00009F4E99808951F920F920FB60F92112426
:1002D0002F933F934F935F936F937F938F939F934E
:1002E000AF93BF93EF93FF93E0911A01F0911B013D
:1002F000309709F00995FF91EF91BF91AF919F91D0
:100300008F917F916F915F914F913F912F910F90BE
:100310000FBE0F901F9018951F920F920FB60F925D
:1003200011242F933F934F935F936F937F938F93FA
:100330009F93AF93BF93EF93FF93E0911801F091D8
:100340001901309709F00995FF91EF91BF91AF9195
:100350009F918F917F916F915F914F913F912F91DD
:100360000F900FBE0F901F90189584B5826084BDCA
:1003700089EF87BDEEE6F0E080818260808385B5FD
:10038000836085BD789408951F920F920FB60F92E7
:1003900011248F939F93AF93BF9380911C019091F1
:1003A0001D01A0911E01B0911F010196A11DB11D5B
:1003B00080931C0190931D01A0931E01B0931F0117
:1003C000BF91AF919F918F910F900FBE0F901F9093
:1003D00018952FB7F89460911C0170911D018091C0
:1003E0001E0190911F012FBF089522EA20938000E3
:1003F00028E1209381007093870060938600803409
:10040000910531F148F48130910511F0089779F0A8
:100410008091810081600EC0811521E09207E1F09A
:1004200081159440A9F780918100856003C0809177
:100430008100826080938100109289001092880070
:1004400010928B0010928A0084B1866084B908955E
:10045000809181008360EECF809181008460EACF3B
:1004600020918600309187002817390720F4809169
:10047000860090918700909389008093880008956A
:1004800020918600309187002817390720F4809149
:1004900086009091870090938B0080938A00089546
:1004A000E1E8F0E08081887F8083089523EA20934B
:1004B000B00080329105F1F038F48130910501F1FE
:1004C000089771F087E00DC080389105A9F081157B
:1004D00021E0920799F080349105A1F784E001C0F2
:1004E00082E08093B1001092B3001092B400239A7E
:1004F000539A089583E0F5CF85E0F3CF86E0F1CFFE
:1005000081E0EFCF8093B30008958093B400089505
:10051000E1EBF0E08081887F808308952F923F9205
:100520004F925F926F927F928F929F92AF92BF9203
:10053000CF92DF92EF92FF920F931F93CF93DF93AF
:10054000CDB7DEB762970FB6F894DEBF0FBECDBF52
:1005500069017A018111D4C08FEF860F823008F0D3
:100560006BC08AE0E0E0F1E0DE01119601900D92AF
:100570008A95E1F78E010F5F1F4F4E012BE0820E2F
:10058000911C412C44E2542E44EF642E712CF8014E
:10059000A190B1908F01D501A70196010E9402059B
:1005A0009B01AC01C301B2010E94D104CA01B9018F
:1005B000615071098109910961157105F1E08F0799
:1005C0009105E0F08016910611F762960FB6F89447
:1005D000DEBF0FBECDBFDF91CF911F910F91FF9076
:1005E000EF90DF90CF90BF90AF909F908F907F90D3
:1005F0006F905F904F903F902F900895A114B10499
:1006000021F3C50162960FB6F894DEBF0FBECDBFD1
:10061000DF91CF911F910F91FF90EF90DF90CF90DE
:10062000BF90AF909F908F907F906F905F904F9012
:100630003F902F900C94F501633039F68EE0EAE09C
:10064000F1E0DE01119601900D928A95E1F78E019D
:100650000F5F1F4FCE010F96988B8F8744244A94CB
:10066000542C3201A12C34E0B32EF801908081800B
:100670000E5F1F4F392C212C910150E040E060E0CB
:1006800074E284EF90E00E94D104C216D306E4061F
:10069000F50678F5DA01C9018C199D09AE09BF0983
:1006A00084159505A605B70520F42C013D01A92C5C
:1006B000B82C8F85988908171907B9F6C501629675
:1006C0000FB6F894DEBF0FBECDBFDF91CF911F9163
:1006D0000F91FF90EF90DF90CF90BF90AF909F90E1
:1006E0008F907F906F905F904F903F902F900C94E1
:1006F0005602D701C601821B930BA40BB50BD0CFBA
:10070000823009F062CF633009F05FCF8EE0EAE01B
:10071000F1E0DE01119601900D928A95E1F78E01CC
:100720000F5F1F4F1E019FE0290E311C44244A9485
:10073000542C3201A12C94E0B92EF80190808180D4
:100740000E5F1F4F9A8A198A89899A899C0150E005
:1007500040E060E074E284EF90E00E94D104C216B1
:10076000D306E406F50698F4DA01C9018C199D094F
:10077000AE09BF0984159505A605B70520F42C011F
:100780003D01A92CB82C02151305B9F697CFD70156
:10079000C601821B930BA40BB50BECCF982F842FB3
:1007A00091112AC0613089F4A0918600B091870030
:1007B000242F30E00E94F3042FEF30E040E050E0BF
:1007C0000E94D104C9010C943002623089F4A091D6
:1007D0008600B0918700242F30E00E94F3042FEFB1
:1007E00030E040E050E00E94D104C9010C94400286
:1007F000633041F40C948202923021F4633011F49E
:100800000C948502089581110AC08FEF860F823003
:1008100010F40C945002633021F40C94880282305E
:10082000D1F30895F999FECF92BD81BDF89A80B5B4
:100830000895F999FECF92BD81BD60BD8FB7F89440
:10084000FA9AF99A8FBF08951F93CF93DF93EC0123
:10085000162F0E941204811739F0612FCE01DF910B
:10086000CF911F910C941904DF91CF911F9108959E
:1008700080E480937C00EAE7F0E087E08083808179
:1008800080688083089590917C00907F8770982B7A
:1008900090937C0080917A00806480937A008091AC
:1008A0007A0086FDFCCF80917800909179000895C0
:1008B0000F931F93CF93DF9300D000D0CDB7DEB757
:1008C0008B019C0180E090E0DC0180179107A2077A
:1008D000B30749F40F900F900F900F90DF91CF91D5
:1008E0001F910F91089519821A821B821C824981DF
:1008F0005A816B817C81483E53406105710520F02F
:100900000196A11DB11DE1CF000049815A816B8183
:100910007C814F5F5F4F6F4F7F4F49835A836B835B
:100920007C83E5CF0E94B50141E050E065E090E0B6
:1009300080E00E94530041E050E062E082E090E0FD
:100940000E945300812C912C5401412C512C3201D6
:100950000E94E9016B017C01DC01CB01841995093E
:10096000A609B709883C9105A105B10538F065E0F5
:1009700090E080E00E94F70026013701D701C60110
:1009800088199909AA09BB09883E9340A105B105B8
:10099000F8F262E082E090E00E94F7004601570121
:1009A000D7CFA1E21A2EAA1BBB1BFD010DC0AA1FA7
:1009B000BB1FEE1FFF1FA217B307E407F50720F0C8
:1009C000A21BB30BE40BF50B661F771F881F991F43
:1009D0001A9469F760957095809590959B01AC018C
:1009E000BD01CF010895A29FB001B39FC001A39F95
:1009F000700D811D1124911DB29F700D811D112458
:100A0000911D08950E94F304A59F900DB49F900D31
:0E0A1000A49F800D911D11240895F894FFCF2E
:100A1E000100080040000001000401000800200051
:080A2E004000800000010004FB
:00000001FF
